{
    "tests/shanghai/eip3855_push0/test_push0.py::TestPush0CallContext::test_push0_contract_during_call_contexts[fork_Cancun-state_test-call]": {
        "env": {
            "currentCoinbase": "0x2adc25665018aa1fe0e6bc666dac8fc2697ff9ba",
            "currentGasLimit": "0x055d4a80",
            "currentNumber": "0x01",
            "currentTimestamp": "0x03e8",
            "currentRandom": "0x0000000000000000000000000000000000000000000000000000000000000000",
            "currentDifficulty": "0x00",
            "currentBaseFee": "0x07",
            "currentExcessBlobGas": "0x00"
        },
        "pre": {
            "0xddf4900925cf8ab387c410b0273fdadb64393fc9": {
                "nonce": "0x00",
                "balance": "0x3635c9adc5dea00000",
                "code": "0x",
                "storage": {}
            },
            "0xc4bd120e5125af077b39ef836e9e875d1426a3da": {
                "nonce": "0x01",
                "balance": "0x00",
                "code": "0x60ff5f5360015ff3",
                "storage": {}
            },
            "0xc4bd120e5125af077b39ef836e9e875d1426a4da": {
                "nonce": "0x01",
                "balance": "0x00",
                "code": "0x6000600060006000600073c4bd120e5125af077b39ef836e9e875d1426a3da620186a0f1600055600160005560016000601f3e600051600155",
                "storage": {}
            }
        },
        "transaction": {
            "nonce": "0x00",
            "gasPrice": "0x0a",
            "gasLimit": [
                "0x0186a0"
            ],
            "to": "0xc4bd120e5125af077b39ef836e9e875d1426a4da",
            "value": [
                "0x00"
            ],
            "data": [
                "0x"
            ],
            "sender": "0xddf4900925cf8ab387c410b0273fdadb64393fc9",
            "secretKey": "0xd96038c95984b0317b984aaec4bd120e5125af077b39ef836e9e875d1426a3da"
        },
        "post": {
            "Cancun": [
                {
                    "hash": "0x87c138760a85e3e5ee9236ff3bf895b5bf32c210153a800dc18bd0fae7be425c",
                    "logs": "0x1dcc4de8dec75d7aab85b567b6ccd41ad312451b948a7413f0a142fd40d49347",
                    "txbytes": "0xf860800a830186a094c4bd120e5125af077b39ef836e9e875d1426a4da808026a05cd06880590bce7ee4a2fbdba667b37a1052e6193d41ecefea617787762211f5a05f953260ef3aff97d083a73dcb4c1122db76db5f5c659851c6094efc1c2b4ce8",
                    "indexes": {
                        "data": 0,
                        "gas": 0,
                        "value": 0
                    },
                    "state": {
                        "0xddf4900925cf8ab387c410b0273fdadb64393fc9": {
                            "nonce": "0x01",
                            "balance": "0x3635c9adc5de95a0ce",
                            "code": "0x",
                            "storage": {}
                        },
                        "0xc4bd120e5125af077b39ef836e9e875d1426a3da": {
                            "nonce": "0x01",
                            "balance": "0x00",
                            "code": "0x60ff5f5360015ff3",
                            "storage": {}
                        },
                        "0xc4bd120e5125af077b39ef836e9e875d1426a4da": {
                            "nonce": "0x01",
                            "balance": "0x00",
                            "code": "0x6000600060006000600073c4bd120e5125af077b39ef836e9e875d1426a3da620186a0f1600055600160005560016000601f3e600051600155",
                            "storage": {
                                "0x00": "0x01",
                                "0x01": "0xff"
                            }
                        },
                        "0x2adc25665018aa1fe0e6bc666dac8fc2697ff9ba": {
                            "nonce": "0x00",
                            "balance": "0x031c8f",
                            "code": "0x",
                            "storage": {}
                        }
                    }
                }
            ]
        },
        "config": {
            "blobSchedule": {
                "Cancun": {
                    "target": "0x03",
                    "max": "0x06",
                    "baseFeeUpdateFraction": "0x32f0ed"
                }
            },
            "chainid": "0x01"
        },
        "_info": {
            "hash": "0x6872e1908269f378af576d9ac913c2039ce4b681f1d1b6f49cd75c2ff7388517",
            "comment": "`execution-spec-tests` generated test",
            "filling-transition-tool": "ethereum-spec-evm-resolver 0.0.5",
            "description": "Test class documentation:\n\n    Tests the PUSH0 operation during various call contexts including:\n    - CALL\n    - CALLCODE\n    - DELEGATECALL\n    - STATICCALL.\n    \n\nTest PUSH0 during various call contexts.",
            "url": "https://github.com/ethereum/execution-spec-tests/tree/v5.1.0/tests/shanghai/eip3855_push0/test_push0.py#L123",
            "fixture-format": "state_test",
            "reference-spec": "https://github.com/ethereum/EIPs/blob/master/EIPS/eip-3855.md",
            "reference-spec-version": "6f85bd73336de4aacfad7ac3bb3a7e1ba2d68f51",
            "eels-resolution": {
                "git-url": "https://github.com/marioevz/execution-specs.git",
                "branch": "forks/bpo1",
                "commit": "3387e5f4aedfe99becfdc39b444d6371e25e0924"
            }
        }
    },
    "tests/shanghai/eip3855_push0/test_push0.py::TestPush0CallContext::test_push0_contract_during_call_contexts[fork_Cancun-state_test-staticcall]": {
        "env": {
            "currentCoinbase": "0x2adc25665018aa1fe0e6bc666dac8fc2697ff9ba",
            "currentGasLimit": "0x055d4a80",
            "currentNumber": "0x01",
            "currentTimestamp": "0x03e8",
            "currentRandom": "0x0000000000000000000000000000000000000000000000000000000000000000",
            "currentDifficulty": "0x00",
            "currentBaseFee": "0x07",
            "currentExcessBlobGas": "0x00"
        },
        "pre": {
            "0xe28bdd548a488ff5c8655714a7baa038d38b2762": {
                "nonce": "0x00",
                "balance": "0x3635c9adc5dea00000",
                "code": "0x",
                "storage": {}
            },
            "0xf3c7a6b689e8942c56a193b86a2db8885cc495a1": {
                "nonce": "0x01",
                "balance": "0x00",
                "code": "0x60ff5f5360015ff3",
                "storage": {}
            },
            "0xf3c7a6b689e8942c56a193b86a2db8885cc496a1": {
                "nonce": "0x01",
                "balance": "0x00",
                "code": "0x600060006000600073f3c7a6b689e8942c56a193b86a2db8885cc495a1620186a0fa600055600160005560016000601f3e600051600155",
                "storage": {}
            }
        },
        "transaction": {
            "nonce": "0x00",
            "gasPrice": "0x0a",
            "gasLimit": [
                "0x0186a0"
            ],
            "to": "0xf3c7a6b689e8942c56a193b86a2db8885cc496a1",
            "value": [
                "0x00"
            ],
            "data": [
                "0x"
            ],
            "sender": "0xe28bdd548a488ff5c8655714a7baa038d38b2762",
            "secretKey": "0x6b588790fbf22aa97c656e49f3c7a6b689e8942c56a193b86a2db8885cc495a1"
        },
        "post": {
            "Cancun": [
                {
                    "hash": "0x6ccccfaaadda04c234317ac35895e192edde0ab3b3db99cf28842871c4dd3661",
                    "logs": "0x1dcc4de8dec75d7aab85b567b6ccd41ad312451b948a7413f0a142fd40d49347",
                    "txbytes": "0xf860800a830186a094f3c7a6b689e8942c56a193b86a2db8885cc496a1808026a0899fa1aa631452128eefb6c034a47743af092d43ebb8bae52fd361e24eb83fb4a005303ae6b4190332f6bdb4f97006c968714f650b932e8b79115909bc9a022861",
                    "indexes": {
                        "data": 0,
                        "gas": 0,
                        "value": 0
                    },
                    "state": {
                        "0xe28bdd548a488ff5c8655714a7baa038d38b2762": {
                            "nonce": "0x01",
                            "balance": "0x3635c9adc5de95a0ec",
                            "code": "0x",
                            "storage": {}
                        },
                        "0xf3c7a6b689e8942c56a193b86a2db8885cc495a1": {
                            "nonce": "0x01",
                            "balance": "0x00",
                            "code": "0x60ff5f5360015ff3",
                            "storage": {}
                        },
                        "0xf3c7a6b689e8942c56a193b86a2db8885cc496a1": {
                            "nonce": "0x01",
                            "balance": "0x00",
                            "code": "0x600060006000600073f3c7a6b689e8942c56a193b86a2db8885cc495a1620186a0fa600055600160005560016000601f3e600051600155",
                            "storage": {
                                "0x00": "0x01",
                                "0x01": "0xff"
                            }
                        },
                        "0x2adc25665018aa1fe0e6bc666dac8fc2697ff9ba": {
                            "nonce": "0x00",
                            "balance": "0x031c86",
                            "code": "0x",
                            "storage": {}
                        }
                    }
                }
            ]
        },
        "config": {
            "blobSchedule": {
                "Cancun": {
                    "target": "0x03",
                    "max": "0x06",
                    "baseFeeUpdateFraction": "0x32f0ed"
                }
            },
            "chainid": "0x01"
        },
        "_info": {
            "hash": "0xe4629dedf9137fe9cd87d5663a692cb992250f9305f5b5625f0dd4a42878607a",
            "comment": "`execution-spec-tests` generated test",
            "filling-transition-tool": "ethereum-spec-evm-resolver 0.0.5",
            "description": "Test class documentation:\n\n    Tests the PUSH0 operation during various call contexts including:\n    - CALL\n    - CALLCODE\n    - DELEGATECALL\n    - STATICCALL.\n    \n\nTest PUSH0 during various call contexts.",
            "url": "https://github.com/ethereum/execution-spec-tests/tree/v5.1.0/tests/shanghai/eip3855_push0/test_push0.py#L123",
            "fixture-format": "state_test",
            "reference-spec": "https://github.com/ethereum/EIPs/blob/master/EIPS/eip-3855.md",
            "reference-spec-version": "6f85bd73336de4aacfad7ac3bb3a7e1ba2d68f51",
            "eels-resolution": {
                "git-url": "https://github.com/marioevz/execution-specs.git",
                "branch": "forks/bpo1",
                "commit": "3387e5f4aedfe99becfdc39b444d6371e25e0924"
            }
        }
    }
}